{
  "contractName": "VentaContract",
  "abi": [
    {
      "inputs": [],
      "name": "ventaCount",
      "outputs": [
        {
          "internalType": "uint256",
          "name": "",
          "type": "uint256"
        }
      ],
      "stateMutability": "view",
      "type": "function",
      "constant": true
    },
    {
      "inputs": [
        {
          "internalType": "uint256",
          "name": "",
          "type": "uint256"
        }
      ],
      "name": "ventas",
      "outputs": [
        {
          "internalType": "uint256",
          "name": "id",
          "type": "uint256"
        },
        {
          "internalType": "uint256",
          "name": "cliente",
          "type": "uint256"
        },
        {
          "internalType": "string",
          "name": "total",
          "type": "string"
        }
      ],
      "stateMutability": "view",
      "type": "function",
      "constant": true
    },
    {
      "inputs": [
        {
          "internalType": "uint256",
          "name": "_cliente",
          "type": "uint256"
        },
        {
          "internalType": "string",
          "name": "_total",
          "type": "string"
        },
        {
          "internalType": "uint256[]",
          "name": "_productoIds",
          "type": "uint256[]"
        },
        {
          "internalType": "uint256[]",
          "name": "_cantidades",
          "type": "uint256[]"
        }
      ],
      "name": "registrarVenta",
      "outputs": [],
      "stateMutability": "nonpayable",
      "type": "function"
    },
    {
      "inputs": [
        {
          "internalType": "uint256",
          "name": "_id",
          "type": "uint256"
        }
      ],
      "name": "getVenta",
      "outputs": [
        {
          "internalType": "uint256",
          "name": "",
          "type": "uint256"
        },
        {
          "internalType": "uint256",
          "name": "",
          "type": "uint256"
        },
        {
          "internalType": "string",
          "name": "",
          "type": "string"
        },
        {
          "internalType": "uint256[]",
          "name": "",
          "type": "uint256[]"
        },
        {
          "internalType": "uint256[]",
          "name": "",
          "type": "uint256[]"
        }
      ],
      "stateMutability": "view",
      "type": "function",
      "constant": true
    }
  ],
  "bytecode": "0x608060405234801561001057600080fd5b506108f2806100206000396000f3fe608060405234801561001057600080fd5b506004361061004c5760003560e01c806311b006741461005157806333dc3acc14610106578063a62f2182146102f3578063b3c0775e14610311575b600080fd5b61007d6004803603602081101561006757600080fd5b8101908080359060200190929190505050610456565b6040518084815260200183815260200180602001828103825283818151815260200191508051906020019080838360005b838110156100c95780820151818401526020810190506100ae565b50505050905090810190601f1680156100f65780820380516001836020036101000a031916815260200191505b5094505050505060405180910390f35b6102f16004803603608081101561011c57600080fd5b81019080803590602001909291908035906020019064010000000081111561014357600080fd5b82018360208201111561015557600080fd5b8035906020019184600183028401116401000000008311171561017757600080fd5b91908080601f016020809104026020016040519081016040528093929190818152602001838380828437600081840152601f19601f820116905080830192505050505050509192919290803590602001906401000000008111156101da57600080fd5b8201836020820111156101ec57600080fd5b8035906020019184602083028401116401000000008311171561020e57600080fd5b919080806020026020016040519081016040528093929190818152602001838360200280828437600081840152601f19601f8201169050808301925050505050505091929192908035906020019064010000000081111561026e57600080fd5b82018360208201111561028057600080fd5b803590602001918460208302840111640100000000831117156102a257600080fd5b919080806020026020016040519081016040528093929190818152602001838360200280828437600081840152601f19601f820116905080830192505050505050509192919290505050610518565b005b6102fb6105db565b6040518082815260200191505060405180910390f35b61033d6004803603602081101561032757600080fd5b81019080803590602001909291905050506105e1565b60405180868152602001858152602001806020018060200180602001848103845287818151815260200191508051906020019080838360005b83811015610391578082015181840152602081019050610376565b50505050905090810190601f1680156103be5780820380516001836020036101000a031916815260200191505b50848103835286818151815260200191508051906020019060200280838360005b838110156103fa5780820151818401526020810190506103df565b50505050905001848103825285818151815260200191508051906020019060200280838360005b8381101561043c578082015181840152602081019050610421565b505050509050019850505050505050505060405180910390f35b6000602052806000526040600020600091509050806000015490806001015490806002018054600181600116156101000203166002900480601f01602080910402602001604051908101604052809291908181526020018280546001816001161561010002031660029004801561050e5780601f106104e35761010080835404028352916020019161050e565b820191906000526020600020905b8154815290600101906020018083116104f157829003601f168201915b5050505050905083565b6001600081548092919060010191905055506040518060a001604052806001548152602001858152602001848152602001838152602001828152506000806001548152602001908152602001600020600082015181600001556020820151816001015560408201518160020190805190602001906105979291906107a3565b5060608201518160030190805190602001906105b4929190610823565b5060808201518160040190805190602001906105d1929190610823565b5090505050505050565b60015481565b60008060608060606105f1610870565b6000808881526020019081526020016000206040518060a00160405290816000820154815260200160018201548152602001600282018054600181600116156101000203166002900480601f0160208091040260200160405190810160405280929190818152602001828054600181600116156101000203166002900480156106bb5780601f10610690576101008083540402835291602001916106bb565b820191906000526020600020905b81548152906001019060200180831161069e57829003601f168201915b505050505081526020016003820180548060200260200160405190810160405280929190818152602001828054801561071357602002820191906000526020600020905b8154815260200190600101908083116106ff575b505050505081526020016004820180548060200260200160405190810160405280929190818152602001828054801561076b57602002820191906000526020600020905b815481526020019060010190808311610757575b505050505081525050905080600001518160200151826040015183606001518460800151955095509550955095505091939590929450565b828054600181600116156101000203166002900490600052602060002090601f016020900481019282601f106107e457805160ff1916838001178555610812565b82800160010185558215610812579182015b828111156108115782518255916020019190600101906107f6565b5b50905061081f919061089f565b5090565b82805482825590600052602060002090810192821561085f579160200282015b8281111561085e578251825591602001919060010190610843565b5b50905061086c919061089f565b5090565b6040518060a0016040528060008152602001600081526020016060815260200160608152602001606081525090565b5b808211156108b85760008160009055506001016108a0565b509056fea2646970667358221220ed16d48abc2d6bef102c15f68d83d734bdecee55f6bfa3ce84792c8f3fb9a3e564736f6c63430007030033",
  "immutableReferences": {},
  "source": "// SPDX-License-Identifier: MIT\r\npragma solidity >=0.4.22 <0.9.0;\r\n\r\ncontract VentaContract {\r\n    struct Venta {\r\n        uint id;\r\n        uint cliente;\r\n        string total;\r\n        uint[] productoIds;\r\n        uint[] cantidades;\r\n    }\r\n\r\n    mapping(uint => Venta) public ventas;\r\n    uint public ventaCount;\r\n\r\n    function registrarVenta(\r\n        uint _cliente,\r\n        string memory _total,\r\n        uint[] memory _productoIds,\r\n        uint[] memory _cantidades\r\n    ) public {\r\n        ventaCount++;\r\n        ventas[ventaCount] = Venta(ventaCount, _cliente, _total, _productoIds, _cantidades);\r\n    }\r\n\r\n    function getVenta(uint _id) public view returns (\r\n        uint,\r\n        uint,\r\n        string memory,\r\n        uint[] memory,\r\n        uint[] memory\r\n    ) {\r\n        Venta memory venta = ventas[_id];\r\n        return (venta.id, venta.cliente, venta.total, venta.productoIds, venta.cantidades);\r\n    }\r\n}\r\n",
  "sourcePath": "D:\\dev\\Blockchain\\smart_contract\\contracts\\VentaContract.sol",
  "compiler": {
    "name": "solc",
    "version": "0.7.3+commit.9bfce1f6.Emscripten.clang"
  },
  "schemaVersion": "3.4.16",
  "updatedAt": "2024-10-07T14:12:42.944Z",
  "networkType": "ethereum",
  "devdoc": {
    "kind": "dev",
    "methods": {},
    "version": 1
  },
  "userdoc": {
    "kind": "user",
    "methods": {},
    "version": 1
  }
}