{
  "contractName": "AutoPayment",
  "abi": [
    {
      "inputs": [
        {
          "internalType": "address",
          "name": "_supplier",
          "type": "address"
        },
        {
          "internalType": "uint256",
          "name": "_paymentAmount",
          "type": "uint256"
        }
      ],
      "stateMutability": "nonpayable",
      "type": "constructor"
    },
    {
      "anonymous": false,
      "inputs": [
        {
          "indexed": false,
          "internalType": "address",
          "name": "supplier",
          "type": "address"
        },
        {
          "indexed": false,
          "internalType": "uint256",
          "name": "amount",
          "type": "uint256"
        }
      ],
      "name": "PaymentSent",
      "type": "event"
    },
    {
      "inputs": [],
      "name": "orderFulfilled",
      "outputs": [
        {
          "internalType": "bool",
          "name": "",
          "type": "bool"
        }
      ],
      "stateMutability": "view",
      "type": "function"
    },
    {
      "inputs": [],
      "name": "owner",
      "outputs": [
        {
          "internalType": "address",
          "name": "",
          "type": "address"
        }
      ],
      "stateMutability": "view",
      "type": "function"
    },
    {
      "inputs": [],
      "name": "paymentAmount",
      "outputs": [
        {
          "internalType": "uint256",
          "name": "",
          "type": "uint256"
        }
      ],
      "stateMutability": "view",
      "type": "function"
    },
    {
      "inputs": [],
      "name": "supplier",
      "outputs": [
        {
          "internalType": "address",
          "name": "",
          "type": "address"
        }
      ],
      "stateMutability": "view",
      "type": "function"
    },
    {
      "inputs": [],
      "name": "fulfillOrder",
      "outputs": [],
      "stateMutability": "nonpayable",
      "type": "function"
    },
    {
      "inputs": [],
      "name": "deposit",
      "outputs": [],
      "stateMutability": "payable",
      "type": "function"
    },
    {
      "inputs": [],
      "name": "checkBalance",
      "outputs": [
        {
          "internalType": "uint256",
          "name": "",
          "type": "uint256"
        }
      ],
      "stateMutability": "view",
      "type": "function"
    }
  ],
  "bytecode": "0x608060405234801561001057600080fd5b5060405161077d38038061077d8339818101604052604081101561003357600080fd5b810190808051906020019092919080519060200190929190505050336000806101000a81548173ffffffffffffffffffffffffffffffffffffffff021916908373ffffffffffffffffffffffffffffffffffffffff16021790555081600160006101000a81548173ffffffffffffffffffffffffffffffffffffffff021916908373ffffffffffffffffffffffffffffffffffffffff160217905550806002819055506000600360006101000a81548160ff021916908315150217905550505061067b806101026000396000f3fe6080604052600436106100705760003560e01c8063c1335aa91161004e578063c1335aa91461010e578063c35905c61461013b578063c71daccb14610166578063d0e30db01461019157610070565b806336da44681461007557806353693be1146100b65780638da5cb5b146100cd575b600080fd5b34801561008157600080fd5b5061008a61019b565b604051808273ffffffffffffffffffffffffffffffffffffffff16815260200191505060405180910390f35b3480156100c257600080fd5b506100cb6101c1565b005b3480156100d957600080fd5b506100e261028a565b604051808273ffffffffffffffffffffffffffffffffffffffff16815260200191505060405180910390f35b34801561011a57600080fd5b506101236102ae565b60405180821515815260200191505060405180910390f35b34801561014757600080fd5b506101506102c1565b6040518082815260200191505060405180910390f35b34801561017257600080fd5b5061017b6102c7565b6040518082815260200191505060405180910390f35b6101996102cf565b005b600160009054906101000a900473ffffffffffffffffffffffffffffffffffffffff1681565b60008054906101000a900473ffffffffffffffffffffffffffffffffffffffff1673ffffffffffffffffffffffffffffffffffffffff163373ffffffffffffffffffffffffffffffffffffffff1614610265576040517f08c379a000000000000000000000000000000000000000000000000000000000815260040180806020018281038252603081526020018061059a6030913960400191505060405180910390fd5b6001600360006101000a81548160ff0219169083151502179055506102886103cf565b565b60008054906101000a900473ffffffffffffffffffffffffffffffffffffffff1681565b600360009054906101000a900460ff1681565b60025481565b600047905090565b60008054906101000a900473ffffffffffffffffffffffffffffffffffffffff1673ffffffffffffffffffffffffffffffffffffffff163373ffffffffffffffffffffffffffffffffffffffff1614610373576040517f08c379a00000000000000000000000000000000000000000000000000000000081526004018080602001828103825260238152602001806106236023913960400191505060405180910390fd5b60025434146103cd576040517f08c379a00000000000000000000000000000000000000000000000000000000081526004018080602001828103825260358152602001806105ee6035913960400191505060405180910390fd5b565b60011515600360009054906101000a900460ff16151514610458576040517f08c379a000000000000000000000000000000000000000000000000000000000815260040180806020018281038252601e8152602001807f456c2070656469646f206e6f206861207369646f2063756d706c69646f2e000081525060200191505060405180910390fd5b6002544710156104b3576040517f08c379a00000000000000000000000000000000000000000000000000000000081526004018080602001828103825260248152602001806105ca6024913960400191505060405180910390fd5b600160009054906101000a900473ffffffffffffffffffffffffffffffffffffffff1673ffffffffffffffffffffffffffffffffffffffff166108fc6002549081150290604051600060405180830381858888f1935050505015801561051d573d6000803e3d6000fd5b507f47db2abce6d5fbcd80ffd9b4ba74dcde804a746ef732bc7f8a70fabfc912c590600160009054906101000a900473ffffffffffffffffffffffffffffffffffffffff16600254604051808373ffffffffffffffffffffffffffffffffffffffff1681526020018281526020019250505060405180910390a156fe536f6c6f20656c20455250207075656465206d6172636172206c61206f7264656e20636f6d6f2063756d706c6964612e466f6e646f7320696e737566696369656e74657320656e20656c20636f6e747261746f2e4c612063616e746964616420656e766961646120646562652073657220696775616c20616c206d6f6e746f2064656c207061676f2e536f6c6f20656c20455250207075656465206465706f736974617220666f6e646f732ea2646970667358221220b5f8962d582d74f0c03ce51987907cb089626f29323f10ec4b4715566b30ed1864736f6c63430007030033",
  "immutableReferences": {},
  "source": "// SPDX-License-Identifier: MIT\r\npragma solidity >=0.4.22 <0.9.0;\r\n\r\ncontract AutoPayment {\r\n    \r\n    address public owner;  // El dueño del contrato (por ejemplo, el ERP)\r\n    address public supplier;  // Dirección del proveedor\r\n    uint256 public paymentAmount;  // Monto del pago\r\n\r\n    bool public orderFulfilled;  // Estado del pedido (se cumple si el proveedor entrega)\r\n\r\n    event PaymentSent(address supplier, uint256 amount);\r\n\r\n    constructor(address _supplier, uint256 _paymentAmount) {\r\n        owner = msg.sender;  // El dueño del contrato es quien lo despliega (el ERP)\r\n        supplier = _supplier;  // Dirección del proveedor\r\n        paymentAmount = _paymentAmount;  // Monto acordado para el pago\r\n        orderFulfilled = false;  // El pedido aún no se cumple\r\n    }\r\n\r\n    // Función que marca la orden como cumplida (solo el dueño puede llamarla)\r\n    function fulfillOrder() public {\r\n        require(msg.sender == owner, \"Solo el ERP puede marcar la orden como cumplida.\");\r\n        orderFulfilled = true;\r\n        executePayment();  // Ejecuta el pago automáticamente si la orden se cumple\r\n    }\r\n\r\n    // Función que permite al ERP enviar fondos al contrato\r\n    function deposit() public payable {\r\n        require(msg.sender == owner, \"Solo el ERP puede depositar fondos.\");\r\n        require(msg.value == paymentAmount, \"La cantidad enviada debe ser igual al monto del pago.\");\r\n    }\r\n\r\n    // Función interna que ejecuta el pago al proveedor\r\n    function executePayment() internal {\r\n        require(orderFulfilled == true, \"El pedido no ha sido cumplido.\");\r\n        require(address(this).balance >= paymentAmount, \"Fondos insuficientes en el contrato.\");\r\n\r\n        payable(supplier).transfer(paymentAmount);  // Transfiere el monto al proveedor\r\n        emit PaymentSent(supplier, paymentAmount);  // Emite el evento del pago\r\n    }\r\n\r\n    // Función para que el proveedor verifique el balance del contrato\r\n    function checkBalance() public view returns (uint256) {\r\n        return address(this).balance;\r\n    }\r\n}\r\n",
  "sourcePath": "D:\\dev\\Blockchain\\smart_contract\\contracts\\AutoPayment.sol",
  "compiler": {
    "name": "solc",
    "version": "0.7.3+commit.9bfce1f6.Emscripten.clang"
  },
  "schemaVersion": "3.4.16",
  "updatedAt": "2024-10-07T14:12:04.687Z",
  "devdoc": {
    "kind": "dev",
    "methods": {},
    "version": 1
  },
  "userdoc": {
    "kind": "user",
    "methods": {},
    "version": 1
  }
}