{
  "contractName": "ERPData",
  "abi": [
    {
      "inputs": [
        {
          "internalType": "uint256",
          "name": "",
          "type": "uint256"
        }
      ],
      "name": "dataEntries",
      "outputs": [
        {
          "internalType": "uint256",
          "name": "id",
          "type": "uint256"
        },
        {
          "internalType": "string",
          "name": "dataHash",
          "type": "string"
        }
      ],
      "stateMutability": "view",
      "type": "function",
      "constant": true
    },
    {
      "inputs": [],
      "name": "entryCount",
      "outputs": [
        {
          "internalType": "uint256",
          "name": "",
          "type": "uint256"
        }
      ],
      "stateMutability": "view",
      "type": "function",
      "constant": true
    },
    {
      "inputs": [
        {
          "internalType": "string",
          "name": "_dataHash",
          "type": "string"
        }
      ],
      "name": "addDataEntry",
      "outputs": [],
      "stateMutability": "nonpayable",
      "type": "function"
    },
    {
      "inputs": [
        {
          "internalType": "uint256",
          "name": "_id",
          "type": "uint256"
        }
      ],
      "name": "getDataEntry",
      "outputs": [
        {
          "internalType": "uint256",
          "name": "",
          "type": "uint256"
        },
        {
          "internalType": "string",
          "name": "",
          "type": "string"
        }
      ],
      "stateMutability": "view",
      "type": "function",
      "constant": true
    }
  ],
  "bytecode": "0x608060405234801561001057600080fd5b5061058a806100206000396000f3fe608060405234801561001057600080fd5b506004361061004c5760003560e01c80630cbb0f8314610051578063325f46581461006f57806360c4ed531461011d578063f75d8ada146101d8575b600080fd5b610059610286565b6040518082815260200191505060405180910390f35b61009b6004803603602081101561008557600080fd5b810190808035906020019092919050505061028c565b6040518083815260200180602001828103825283818151815260200191508051906020019080838360005b838110156100e15780820151818401526020810190506100c6565b50505050905090810190601f16801561010e5780820380516001836020036101000a031916815260200191505b50935050505060405180910390f35b6101d66004803603602081101561013357600080fd5b810190808035906020019064010000000081111561015057600080fd5b82018360208201111561016257600080fd5b8035906020019184600183028401116401000000008311171561018457600080fd5b91908080601f016020809104026020016040519081016040528093929190818152602001838380828437600081840152601f19601f820116905080830192505050505050509192919290505050610348565b005b610204600480360360208110156101ee57600080fd5b81019080803590602001909291905050506103b2565b6040518083815260200180602001828103825283818151815260200191508051906020019080838360005b8381101561024a57808201518184015260208101905061022f565b50505050905090810190601f1680156102775780820380516001836020036101000a031916815260200191505b50935050505060405180910390f35b60015481565b6000602052806000526040600020600091509050806000015490806001018054600181600116156101000203166002900480601f01602080910402602001604051908101604052809291908181526020018280546001816001161561010002031660029004801561033e5780601f106103135761010080835404028352916020019161033e565b820191906000526020600020905b81548152906001019060200180831161032157829003601f168201915b5050505050905082565b600160008154809291906001019190505550604051806040016040528060015481526020018281525060008060015481526020019081526020016000206000820151816000015560208201518160010190805190602001906103ab92919061049d565b5090505050565b600060606103be61051d565b60008085815260200190815260200160002060405180604001604052908160008201548152602001600182018054600181600116156101000203166002900480601f01602080910402602001604051908101604052809291908181526020018280546001816001161561010002031660029004801561047e5780601f106104535761010080835404028352916020019161047e565b820191906000526020600020905b81548152906001019060200180831161046157829003601f168201915b5050505050815250509050806000015181602001519250925050915091565b828054600181600116156101000203166002900490600052602060002090601f016020900481019282601f106104de57805160ff191683800117855561050c565b8280016001018555821561050c579182015b8281111561050b5782518255916020019190600101906104f0565b5b5090506105199190610537565b5090565b604051806040016040528060008152602001606081525090565b5b80821115610550576000816000905550600101610538565b509056fea264697066735822122078892485b4d26e95ead2df185f73c78b110c056a14989e987df4decfb48df87c64736f6c63430007030033",
  "immutableReferences": {},
  "source": "// SPDX-License-Identifier: MIT\r\npragma solidity >=0.4.22 <0.9.0;\r\n\r\ncontract ERPData {\r\n    struct DataEntry {\r\n        uint id;\r\n        string dataHash;\r\n    }\r\n    \r\n    mapping(uint => DataEntry) public dataEntries;\r\n    uint public entryCount;\r\n\r\n    // Function to add a new data entry\r\n    function addDataEntry(string memory _dataHash) public {\r\n        entryCount++;\r\n        dataEntries[entryCount] = DataEntry(entryCount, _dataHash);\r\n    }\r\n\r\n    // Function to retrieve a specific data entry by id\r\n    function getDataEntry(uint _id) public view returns (uint, string memory) {\r\n        DataEntry memory entry = dataEntries[_id];\r\n        return (entry.id, entry.dataHash);\r\n    }\r\n}\r\n",
  "sourcePath": "D:\\dev\\Blockchain\\smart_contract\\contracts\\ERPData.sol",
  "compiler": {
    "name": "solc",
    "version": "0.7.3+commit.9bfce1f6.Emscripten.clang"
  },
  "schemaVersion": "3.4.16",
  "updatedAt": "2024-10-07T14:12:42.819Z",
  "networkType": "ethereum",
  "devdoc": {
    "kind": "dev",
    "methods": {},
    "version": 1
  },
  "userdoc": {
    "kind": "user",
    "methods": {},
    "version": 1
  }
}